:100000000C9420600C9451600C9451600C945160DD
:100010000C9451600C9451600C9451600C9451609C
:100020000C9451600C9451600C9451600C9451608C
:100030000C9451600D94983E0C9451600C94516056
:100040000C9451600C941FD50C9451600C94516029
:100050000C9451600C9451600D94E31F0D943E403C
:100060000C9451600D9419620C9451600C94516081
:100070000C9451600C9451600C9451600C9451603C
:100080000C9451600C9451600C9451600C9451602C
:100090000C9451600C9451600C9451600C9451601C
:1000A0000C9451600C9451600C9451600C9451600C
:1000B0000C9451600C9451600C9451600C945160FC
:1000C0000C9451600C9451600C9451600D94D56166
:1000D0000C9451600C9451600C9451600C945160DC
:1000E0000C94516006F120F13EF15EF18AF195F138
:1000F000A0F1BAF1B401A201E20136016601760174
:10010000BA01DA015601D401C6012E01B201700113
:1001100074019C01CE013401A80190016001B80175
:100120006A0162015C01CE01C001A60164019A016D
:10013000E4013A0178014601A0018A019201DC0143
:10014000C801C201D60184014C01A0012C01380173
:10015000AC013E0132012A0168015E0150018801B3
:1001600042018E019E019401AE01E001C401B6017D
:10017000B601B601520152015201800196015201AD
:100180004001084AD73B3BCE016E84BCBFFDC12F66
:100190003D6C74319ABD56833DDA3D00C77F11BE78
:1001A000D9E4BB4C3E916BAAAABE000000803F057B
:1001B000A84CCDB2D44EB93836A9020C50B99186AC
:1001C00088083CA6AAAA2ABE000000803F07634216
:1001D00036B79BD8A71A39685618AEBAAB558C1DDE
:1001E0003CB7CC5763BD6DEDFD753EF6177231BF60
:1001F000000000803F08000000BE922449123EAB80
:10020000AAAA2ABECDCCCC4C3E00000080BEABAA30
:10021000AAAA3E00000000BF000000803F000000CE
:100220000000084178D3BB4387D1133D190E3CC36E
:10023000BD4282AD2B3E68EC8276BED98FE1A93EED
:100240004C80EFFFBE01C4FF7F3F000000000000B4
:100250000D944C9A0D944B690D94D33F0D94933D9E
:100260000D94875B0D9439690D949A3D0D946A2025
:100270000D94DD3F0D94643F0D9434160D94216967
:100280000D94176B0D94586A0D940A660D94783F7F
:100290000D94543B0D94BF650D94C93F0D94D399B3
:1002A0000D9486690D942B6B0D94F33D0D94B22043
:1002B0000D94DD340D9445140D94BA3D0D9472697E
:1002C0000D94A83D0D94B63D0D94C83D0D94842029
:1002D0000D9461690D94B23D0D9416090D942B1681
:1002E0000D94853D0D94EB620D94893D0D94922003
:1002F0000D946E3F0D94885B0D944D3D0D94ACC1F3
:100300000D940D6B0D9411660D94BF3F0D94FA7F03
:100310000D94A2690D94823F0D9446160D94786A4F
:100320000D94A43D0D948A3F0D94A56A0D943B6BEA
:100330000D94C59F0D945A3F0D948F3D0D94886A7E
:100340000D94F13F0D9440200D945B110D94C43D2C
:100350000D949E3D0D94959E0D94E73F0D94C46AB7
:100360000D94CE700D94963D0D9432200D94056B36
:100370000D94AC3D0D94AC200D94E5680D9434665D
:100380000D94C03D0D94A63F0D94FD6A0D94BE20C2
:100390000D949C3F0D9403660D946D670D94CD3DB7
:1003A0000D94F26D0D9458BF0D94B6200D94B03F8E
:1003B0000D9435AC0D94B0200D94923F0D947B6B51
:1003C0000D94F56A0D945C200D945F3F0D94051B10
:1003D0000D943D160D94CA104E414E494E49545944
:1003E000494E46CDCCCC3D0AD7233C17B7D1387700
:1003F000CC2B329595E6241FB14F0A000020410016
:1004000000C84200401C4620BCBE4CCA1B0E5AAE5F
:10041000C59D745344207072696E74696E67206262
:100420007974652000426974746520616B7475612C
:100430006C6973696572656E2E0050726F737A65B0
:10044000207A616B7475616C697A6F7761630041C2
:10045000637475616C697A617220706F7220666175
:10046000766F7200507265676120616767696F72AD
:100470006E612E0050726F73696D20616B747561CF
:100480006C697A756A74652E00506C6561736520BD
:10049000757067726164652E004E657565204669EA
:1004A000726D776172652056657273696F6E207622
:1004B0006572667565676261723A005779737A6C26
:1004C00061206E6F776120776572736A612066695B
:1004D000726D776172653A004E7565766F20666958
:1004E000726D7761726520646973706F6E69626C9A
:1004F000653A004E756F76612076657273696F6E2E
:10050000652064656C206669726D77617265206430
:100510006973706F6E6962696C65005679736C619E
:10052000206E6F7661207665727A65206669726DDD
:10053000776172653A004E6577206669726D776102
:1005400072652076657273696F6E20617661696C81
:1005500061626C653A00756E64204B6E6F70662048
:1005600064727565636B656E004E616369736E6975
:100570006A2070727A796369736B0048617A2063CC
:100580006C6963006520636C696363617265206DEB
:10059000616E6F706F6C61006120737469736B6E54
:1005A00065746520746C616369746B6F00616E645F
:1005B00020707265737320746865206B6E6F6200C3
:1005C00046696C616D656E742065696E6C65676502
:1005D0006E005770726F7761647A2066696C616D26
:1005E000656E7400496E74726F647563697220661B
:1005F000696C616D656E746F00496E7365726972C6
:10060000652066696C616D656E746F00566C6F7AFB
:1006100074652066696C616D656E7400496E736502
:1006200072742066696C616D656E740046617262F9
:100630006520756E6B6C6172004B6F6C6F72207A07
:10064000616E6965637A79737A2E00436F6C6F729D
:10065000206E6F20686F6D6F67656E656F00436F0A
:100660006C6F7265206E6F6E207075726F004261E4
:10067000727661206E656E692063697374610043F0
:100680006F6C6F72206E6F7420636C6561720046D0
:10069000696C2E206E696368742067656C6164659F
:1006A0006E004272616B2066696C616D656E747577
:1006B0000046696C2E206E6F20696E74726F6475CF
:1006C0006369646F0046696C2E206E6F6E206361F3
:1006D00072696361746F0046696C616D656E742048
:1006E0006E657A61766564656E0046696C616D65FC
:1006F0006E74206E6F74206C6F6164656400576562
:10070000636873656C206F6B3F0057796D69616E2C
:1007100061206F6B3F0043616D626961646F2063AC
:100720006F72726563742E3F0043616D626961741C
:100730006F20636F72722E3F0056796D656E612077
:100740006F6B3F004368616E67656420636F727210
:100750006563746C793F004C616465204661726228
:100760006500437A79737A637A2E206B6F6C6F72AF
:10077000750043616D6269616E646F20636F6C6FB9
:1007800072004361726963616E646F20636F6C6FA6
:1007900072650043697374656E692062617276796F
:1007A000004C6F6164696E6720636F6C6F720057F5
:1007B00065636873656C206572666F6C67722E2165
:1007C0000057796D69616E61206F6B210043616D27
:1007D00062696F20636F72726563746F0043616D4D
:1007E00062696F20726975736369746F21005A6D55
:1007F000656E612075737065736E61210043686179
:100800006E676520737563636573732100456B7351
:10081000747275646572004578747275736F7200D6
:100820004573747275736F72650045787472756480
:10083000657200576165686C656E20536965204577
:1008400078747275646572005779626965727A208E
:10085000656B7374727564657200456C6567697267
:10086000206578747275736F723A0053656C657A9F
:10087000696F6E61206573747275736F72653A008B
:1008800056796265727465206578747275646572F4
:100890003A0043686F6F736520657874727564659C
:1008A000723A0041637469766520457874727564A4
:1008B00065723A2000496E76616C696420657874CF
:1008C00072756465720046696C616D656E74206155
:1008D000757377657266656E005779737577616DAC
:1008E0002066696C616D656E7400536F6C74616E27
:1008F000646F2066696C616D656E746F0052696C1F
:100900006173632E2066696C616D656E746F00564D
:1009100079736F7576616D2066696C616D656E7453
:1009200000556E6C6F6164696E672066696C616DFD
:10093000656E74007A5F6D61783A20005A204F66C8
:100940006673657400556E6B6E6F776E20636F6DA6
:100950006D616E643A2022004D32303020496E764F
:10096000616C696420657874727564657220007AC0
:100970005F6D696E3A2000795F6D696E3A20006F95
:1009800070656E0054524947474552454400785FB0
:100990006D696E3A20005265706F7274696E6720DF
:1009A000656E6473746F7020737461747573002066
:1009B000436F756E7420583A20004649524D574196
:1009C00052455F4E414D453A4D61726C696E2056FD
:1009D000312E302E323B20537072696E7465722F47
:1009E0006772626C206D617368757020666F72202B
:1009F00067656E36204649524D574152455F555204
:100A00004C3A68747470733A2F2F67697468756212
:100A10002E636F6D2F707275736133642F50727512
:100A200073612D69332D506C75732F2050524F54C4
:100A30004F434F4C5F56455253494F4E3A312E303B
:100A4000204D414348494E455F545950453A5072F4
:100A5000757361206933204D4B32204558545255EF
:100A60004445525F434F554E543A31205555494401
:100A70003A30303030303030302D303030302D3072
:100A80003030302D303030302D303030303030306C
:100A900030303030300A004F666600456E642066A4
:100AA000696C65206C69737400426567696E2066C5
:100AB000696C65206C697374004B65696E652042D2
:100AC00065776567756E672E0053696E206D6F766A
:100AD000696D69656E746F004E657373756E206D18
:100AE0006F76696D656E746F2E004E6F206D6F7638
:100AF000652E00447275636B20666F727467657350
:100B000065747A7400577A6E6F7769656E696520CF
:100B10006472756B7500526573756D69656E646F8F
:100B200020696D70726573696F6E005269707265CD
:100B30006E6469207374616D7061004F626E6F76D0
:100B4000656E69207469736B7500526573756D69A4
:100B50006E67207072696E740057617274652061EF
:100B6000756620757365722E2E2E00457370657242
:100B7000616E646F206F7264656E6573004174749A
:100B8000656E64656E646F207574656E746500577C
:100B900061697420666F7220757365722E2E2E0047
:100BA0005A2D4B616C696272696572756E67206659
:100BB00065686C67657363686C672E2053656E7338
:100BC0006F72207A7520686F63682061757367653E
:100BD0006C6F6573742E2057617274652061756641
:100BE0002052657365742E004B616C69627261639B
:100BF0006A61205A206E69657564616E612E2053AA
:100C0000656E736F7220646F746B2E207A6120772B
:100C100079736F6B6F2E20437A656B616D206E6107
:100C20002072657365742E004E6976656C61636928
:100C30006F6E2066616C6C6164612E2053656E730B
:100C40006F722066756E63696F6E612064656D6199
:100C5000736961646F2074656D7072616E6F2E20B0
:100C60004573706572616E646F2072657365742E72
:100C7000004C6976656C6C616D656E746F206C6597
:100C800074746F2066616C6C69746F2E5269737036
:100C90002073656E736F72652074726F70706F2051
:100CA00070726573746F496E20617474657361202E
:100CB00064692072657365742E004B616C696272A1
:100CC000616365205A2073656C68616C612E2053E6
:100CD000656E736F72207365706E756C20707269CB
:100CE0006C6973207679736F6B6F2E2043656B612F
:100CF0006D206E612072657365742E0042656420FC
:100D00006C6576656C696E67206661696C65642EDA
:100D10002053656E736F72207472696767657265C0
:100D20006420746F6F20686967682E20576169744A
:100D3000696E6720666F722072657365742E005A43
:100D40002D4B616C696272696572756E67206665AC
:100D5000686C67657363686C672E2053656E736F8C
:100D600072206E6963687420616E67657363686C76
:100D70006F7373656E2E205761727465206175669E
:100D80002052657365742E004B616C6962726163F9
:100D90006A61206E69657564616E612E2053656EAF
:100DA000736F72206F646C61637A6F6E79206C75FB
:100DB000622075737A6B6F647A2E206B6162656C4A
:100DC0002E20437A656B616D206E612072657365BC
:100DD000742E004E6976656C6163696F6E20666182
:100DE0006C6C6164612E2053656E736F7220646554
:100DF00073636F6E65637461646F206F20636162FB
:100E00006C65732064616E61646F732E204573702E
:100E10006572616E646F2072657365742E004C6933
:100E200076656C6C616D656E746F206C6574746F43
:100E30002066616C6C69746F2E2053656E736F72DF
:100E40006520646973636F6E2E206F204361766F37
:100E50002044616E6E2E20496E206174746573614A
:100E60002064692072657365742E004B616C696241
:100E700072616365205A2073656C68616C612E2015
:100E800053656E736F72206A65206F64706F6A6558
:100E90006E79206E65626F20707265727573656E13
:100EA00079206B6162656C2E2043656B616D206EED
:100EB000612072657365742E00426564206C6576EE
:100EC000656C696E67206661696C65642E20536588
:100ED0006E736F7220646973636F6E6E65637465A1
:100EE00064206F72206361626C652062726F6B6553
:100EF0006E2E2057616974696E6720666F7220726A
:100F0000657365742E005A2D4B616C2E20666568E2
:100F10006C67657363686C672E2053656E736F72C0
:100F2000206E696368742061757367656C6F6573A3
:100F3000742E205363686D75747A696765204475F3
:100F40006573653F20576172746520617566205234
:100F500065736574004B616C69627261636A6120DC
:100F60006E69657564616E612E2053656E736F7274
:100F7000206E696520646F746B6E616C2E205A61FF
:100F80006E6965637A79737A2E206479737A613F2A
:100F900020437A656B616D206E61207265736574A4
:100FA0002E004E6976656C6163696F6E2066616CB8
:100FB0006C6164612E2053656E736F72206E6F20BA
:100FC00066756E63696F6E612E204573636F6D6227
:100FD000726F7320656E206E6F7A7A6C653F204564
:100FE00073706572616E646F2072657365742E0034
:100FF0004C6976656C6C616D656E746F206C6574A0
:10100000746F2066616C6C69746F2E4E6F526973D9
:101010007053656E736F72205265736964756920D1
:101020007375207567656C6C6F3F20496E20617425
:10103000746573612064692072657365742E004B5A
:10104000616C696272616365205A2073656C6861C6
:101050006C612E2053656E736F72206E65736570C0
:101060006E756C2E205A6E6563697374656E6120AF
:10107000747279736B613F2043656B616D206E61A3
:101080002072657365742E00426564206C65766518
:101090006C696E67206661696C65642E2053656EAD
:1010A000736F72206469646E742074726967676517
:1010B000722E20446562726973206F6E206E6F7AA3
:1010C0007A6C653F2057616974696E6720666F723C
:1010D0002072657365742E0054656D702E204B610F
:1010E0006C696272696572756E6720666572746993
:1010F000672E204B6C69636B656E20756D2077657C
:1011000069746572207A7520676568656E2E004384
:101110006965706C6E61206B616C69627261636A93
:1011200061207A616B6F6E637A6F6E612E204B6FF8
:101130006E74796E75756A2070727A796369736BF3
:1011400069656D0043616C69627261636F6E2074E2
:10115000656D7065726174757261207465726D6918
:101160006E6164612E2048617A20636C696320702F
:1011700061726120636F6E74696E7561722E0054C6
:10118000617261747572612074656D7065726174ED
:10119000757261207465726D696E6174612E20468E
:1011A00061726520636C69636B2070657220636F88
:1011B0006E74696E756172652E005465706C6F7423
:1011C0006E69206B616C69627261636520646F6B2C
:1011D0006F6E63656E612E20506F6B726163756A0E
:1011E000746520737469736B656D20746C616369D9
:1011F000746B612E0054656D7065726174757265F3
:101200002063616C6962726174696F6E206973201A
:1012100066696E69736865642E20436C69636B2030
:10122000746F20636F6E74696E75652E0045696E0C
:10123000656E204D6F6D656E742062697474652EE5
:1012400000456E2065737065726100536F73706541
:101250006E73696F6E652E2E2E00536C6565702E51
:101260002E2E005A207368696674206170706C6954
:1012700065643A000A000A002F0013040A002E00D9
:1012800044656C6574696F6E206661696C65642C79
:101290002046696C653A200046696C652064656C7F
:1012A000657465643A002E0020573A0020453A00E4
:1012B000543A008904740464044F043A0425040079
:1012C00036051B05F304D804BB0499045049442097
:1012D0004175746F74756E652066696E69736865B3
:1012E00064212050757420746865206C61737420CB
:1012F0004B702C204B6920616E64204B6420636F1F
:101300006E7374616E74732066726F6D2061626FAC
:10131000766520696E746F20436F6E6669677572BB
:101320006174696F6E2E6800504944204175746F76
:1013300074756E65206661696C6564212074696DE1
:10134000656F75740020403A006F6B20543A006F4F
:101350006B20423A00504944204175746F74756E99
:1013600065206661696C6564212054656D706572E5
:10137000617475726520746F6F20686967680020FA
:101380004B643A2000204B693A2000204B703A20F1
:101390000020436C6173736963205049442000202E
:1013A00054753A2000204B753A2000206D61783A40
:1013B0002000206D696E3A200020643A20002062EF
:1013C0006961733A200053657474696E67732053C2
:1013D000746F7265640046696C616D656E7420732C
:1013E000657474696E67733A2044697361626C65F1
:1013F00064002020204D32303020440046696C616A
:101400006D656E742073657474696E67733A00203D
:1014100020204D3230392053004175746F2D5265B4
:1014200074726163743A20533D3020746F20646994
:101430007361626C652C203120746F20696E746555
:10144000727072657420657874727564652D6F6E44
:101450006C79206D6F76657320617320726574728C
:1014600061637473206F72207265636F7665726951
:101470006573002046002020204D32303820530074
:101480005265636F7665723A20533D457874726198
:10149000206C656E67746820286D6D2920463A536C
:1014A0007065656420286D6D2F6D2900205A00201D
:1014B00046002020204D3230372053005265747290
:1014C0006163743A20533D4C656E67746820286DE3
:1014D0006D2920463A537065656420286D6D2F6D27
:1014E00029205A3A205A4C69667420286D6D2900CB
:1014F0002044002049002020204D3330342050006B
:101500005049442068656174626564207365747431
:10151000696E67733A002044002049002020204D66
:101520003330312050005049442073657474696E23
:1015300067733A00205A0020590020204D3230367F
:10154000205800486F6D65206F66667365742028AB
:101550006D6D293A00204500205A0020590020587E
:101560000020420020540020204D3230352053000E
:10157000416476616E636564207661726961626C54
:1015800065733A20533D4D696E20666565647261EE
:10159000746520286D6D2F73292C20543D4D696E84
:1015A0002074726176656C2066656564726174652D
:1015B00020286D6D2F73292C20423D6D696E696D59
:1015C000756D207365676D656E742074696D652037
:1015D000286D73292C20583D6D6178696D756D20DB
:1015E0005859206A65726B20286D6D2F73292C2045
:1015F000205A3D6D6178696D756D205A206A65725B
:101600006B20286D6D2F73292C2020453D6D61784E
:10161000696D756D2045206A65726B20286D6D2F90
:1016200073290020540020204D32303420530041D3
:101630006363656C65726174696F6E3A20533D61D6
:101640006363656C65726174696F6E2C20543D72C2
:1016500065747261637420616363656C6572617443
:10166000696F6E00204500205A0020590020204D4F
:101670003230312058004D6178696D756D204163BD
:1016800063656C65726174696F6E20286D6D2F7370
:1016900032293A00204500205A0020590020204DD0
:1016A0003230332058004D6178696D756D20666564
:1016B0006564726174657320286D6D2F73293A001B
:1016C000204500205A0020590020204D3932205852
:1016D0000053746570732070657220756E69743A7A
:1016E00000AD05980584057B05690556051C060CAB
:1016F00006F905E405D205C0057F066E065E064BB9
:101700000639062C06EA06D706C506B106A2068FDC
:101710000644073907290716070A07FE06A107939B
:10172000078207720762075707FD07EE07DD07CD3F
:1017300007C107AF074175746F0020452F443D0076
:10174000416476616E6365204B3D002A082A0820BB
:101750000817080D082A08920880086B085A0848DC
:101760000833082200A308B5085400496E76616C5E
:101770006964205420636F64652E00496E76616C45
:101780006964204D20636F64652E004D3232302035
:101790005325690021090F09FD08EA08D908C60880
:1017A000203A20003409003C094C414E4720534563
:1017B0004C20464F52434544002200450958096FCA
:1017C0000977097F0984098E099609205A3A002071
:1017D000593A00AF0920453A00205A3A0020593AB8
:1017E00000583A00BA094D3131332053002E002001
:1017F00000970A20423A0020453A00543A0020421D
:10180000403A0020403A00202F003A0020540020A7
:101810002F0020423A00202F006F6B20543A002501
:1018200069206D696E2C20256920736563009B0A11
:10183000A90AEA0AEA0AD80AC90AEA0AB90A4A0B4C
:101840003B0B2B0B160B050BF30A8F0B8F0B7D0B32
:101850006B0B8F0B590B496E76616C6964204D20C0
:10186000636F6465004D65736820626564206C6514
:1018700076656C696E67206E6F742061637469763B
:10188000652E000A002020000A4D6561737572659F
:101890006420706F696E74733A000A5A2073656130
:1018A000726368206865696768743A20002C004E8E
:1018B000756D20582C593A2000476F20686F6D6570
:1018C0002066696E6973686564004D65736820629F
:1018D0006564206C6576656C696E67206163746908
:1018E000766174656400557073616D706C65206617
:1018F000696E697368656400426564206C6576652D
:101900006C696E6720636F7272656374696F6E20B5
:1019100066696E697368656400206D6963726F6ED5
:10192000730045786365737369766520626564202A
:101930006C6576656C696E6720636F72726563743F
:10194000696F6E3A200042656420636F727265634E
:1019500074696F6E2064617461206E6F74207661AB
:101960006C69640A0042656420636F727265637417
:10197000696F6E20646174612076616C69640A002D
:101980006261627973746570206170706C696564FE
:1019900000636C65616E2075702066696E6973689E
:1019A000656420004D4553485F484F4D455F5A5F81
:1019B0005345415243483A20004D657368206265A3
:1019C00064206C6576656C696E67207768696C6504
:1019D000206C6F6F702066696E69736865642E0095
:1019E000006D65736820626564206C6576656C695E
:1019F0006E673A20000A00593A200000583A200049
:101A0000FC0CBA0C710C280CE80BA00BB90E6B0E79
:101A10001E0ED30D880D3F0D88103F10F00FA20F42
:101A2000550F060F3A206E6F20787920636C616D38
:101A300070696E670A003A20787920636C616D7076
:101A400065642E0A00002C2063616C696272617407
:101A5000696F6E207A3A2000426564206C65766575
:101A60006C696E672C20706F696E743A2000005AA2
:101A7000206A697474657220646174612066726F93
:101A80006D205A2063616C2E206E6F742076616C1D
:101A900069642E0A005A206A697474657220646150
:101AA00074612066726F6D205A2063616C2E2076FF
:101AB000616C69642E0A004E6F20636C616D706901
:101AC0006E6720666F722066697273742063616C42
:101AD0006962726174696F6E20706F696E742E0A2C
:101AE0000046697273742063616C69627261746923
:101AF0006F6E20706F696E7420636C616D706564C9
:101B00002E0A0047323820573000473238205730ED
:101B100000F511BA117F1144110F11D81054656DE1
:101B200070657261747572652063616C696272615F
:101B300074696F6E20646F6E652E20436F6E7469DA
:101B40006E75652077697468207072657373696E4D
:101B50006720746865206B6E6F622E0000205A202B
:101B6000736869667420286D6D293A0054656D703C
:101B7000657261747572653A2000002F36005374E7
:101B800065703A2000005A45524F3A2000005049F3
:101B90004E44412070726F62652063616C696272AD
:101BA0006174696F6E2073746172740047323820FB
:101BB0005730000A00205A3A200020593A200020CD
:101BC000583A20005A125A124B1241125A122D1230
:101BD000000043616C63756C617465206F666673A9
:101BE000657420616E6420736B657720726574750F
:101BF000726E696E6720726573756C743A000000CE
:101C0000292C206572726F723A20002C2000293B2B
:101C1000207461726765743A2028002C2000293BEB
:101C2000206D656173757265642D636F7272656393
:101C30007465643A2028002C20006D65617375720C
:101C400065643A202800706F696E7420230044692F
:101C500066666572656E6365206166746572206391
:101C60006F7272656374696F6E3A2000002C2000F9
:101C700063656E7465722C2061646A757374656443
:101C80003A2000002C20005920766563746F722C76
:101C90002061646A75737465643A2000002C20002A
:101CA0005820766563746F722C2061646A75737452
:101CB00065643A200000636E74725B315D3A000027
:101CC000636E74725B305D3A0046696E616C2063CE
:101CD0006E74722076616C7565733A00000000774F
:101CE000793A0000636E74725B315D3A00005765AB
:101CF000696768745F793A000077783A0000636E2C
:101D000074725B305D3A00005765696768745F788C
:101D10003A000056657279206C6974746C652073A2
:101D20006B65772064657465637465642E204F72FB
:101D300074686F676F6E616C697A696E672074682A
:101D40006520617865732E00004D61782E206572E4
:101D5000726F72206575636C696469616E3A004DDB
:101D600061782E206572726F7220593A004D617849
:101D70002E206572726F7220583A004D61782E20C5
:101D80006572726F72733A0000002C206572726F78
:101D90007220593A20002C206572726F7220583AD6
:101DA00020006572726F723A200029002C200029F1
:101DB0003B207461726765743A2028002C2000294A
:101DC0003B20636F727265637465643A2028002C4F
:101DD00020006D656173757265643A202800002CDF
:101DE000206572726F72203E206D61782E206572C0
:101DF000726F72206575636C696469616E00506F03
:101E0000696E74206E6F74206F6E206669727374D1
:101E100020726F77002C206572726F722059203EFD
:101E2000206D61782E206572726F722059002C200F
:101E30006572726F722058203E206D61782E206589
:101E400072726F722058002C207765696774682061
:101E5000593A2000506F696E74206F6E2066697267
:101E6000737420726F77003A00706F696E7420236C
:101E7000004572726F7220616674657220636F72C2
:101E800072656374696F6E3A2000002C20006365F0
:101E90006E746572206E65772C20696E766572743B
:101EA00065643A2000002C20005920766563746F29
:101EB00072206E65772C20696E7665727465643A5F
:101EC0002000002C20005820766563746F72206E0D
:101ED00065772C20696E7665727465643A2000001F
:101EE0002C2000636F7272656374696F6E20616E7F
:101EF000676C65733A2000002C2000636F72726576
:101F00006374656420616E676C65733A2000002C11
:101F10002000636F7272656374656420782F793A6C
:101F20002000002C20002C20002C20003B20636F80
:101F30007272656374696F6E20766563746F723A4E
:101F40002000697465726174696F6E3A200000291F
:101F50002C206572726F723A20002C2000293B20E1
:101F60007461726765743A2028002C2000206D652A
:101F70006173757265643A202800706F696E742011
:101F80002300002C200063656E7465722C20696E3E
:101F9000697469616C3A2000002C20005920766534
:101FA00063746F722C20696E697469616C3A2000E9
:101FB000002C20005820766563746F722C20696EA7
:101FC000697469616C3A200063616C63756C61745B
:101FD00065206D616368696E6520736B657720614C
:101FE0006E64206F6666736574204C530049737489
:101FF00020646572205363686C697474656E206731
:10200000616E7A206F62656E3F004F626120776F6C
:102010007A6B6920646F6A656368616C7920646FAC
:1020200020676F726E656A2072616D793F0043614F
:1020300072726F73205A20697A712E2F6465722E26
:1020400020657374616E20617272696261206D61D6
:1020500078696D6F3F00492063617272656C6C69CD
:10206000205A2073696E2F64657320736F6E6F2022
:10207000616C74657A7A61206D61783F00446F6AA3
:10208000656C79206F6261205A20766F7A696B796E
:10209000206B7E686F726E696D7520646F72617AF5
:1020A000753F00417265206C65667420616E642026
:1020B0007269676874205A7E6361727269616765CC
:1020C0007320616C6C2075703F00426974746520E8
:1020D000656E746665726E656E2053696520756500
:1020E00062657273746568656E6465732046696CB9
:1020F000616D656E7420766F6E2064657220447524
:102100006573652E204B6C69636B656E2077656E19
:102110006E207361756265722E00446C612070726E
:10212000617769646C2E206B616C69627261636AAD
:10213000692070726F737A65206F637A797363694F
:1021400063206479737A652E20506F74772E206730
:10215000757A696B69656D2E004C696D70696120D7
:102160006E6F7A7A6C6520706172612063616C6950
:1021700062726163696F6E2E20436C69636B2063CA
:1021800075616E646F206163616265732E005075C6
:102190006C697265206C277567656C6C6F20706563
:1021A00072206C612063616C696272617A696F6E22
:1021B000652C20706F69206661726520636C6963AD
:1021C0006B2E0050726F2075737065736E6F752083
:1021D0006B616C696272616369206F6369737465B6
:1021E00074652070726F73696D207469736B6F769C
:1021F0006F7520747279736B752E20506F747672C0
:1022000064746520746C616369746B656D2E005035
:102210006C6561736520636C65616E207468652010
:102220006E6F7A7A6C6520666F722063616C69628A
:10223000726174696F6E2E20436C69636B207768DE
:10224000656E20646F6E652E004B616C6962726909
:102250006572656E20766F6E2058595A2E20447232
:102260006568656E205369652064656E204B6E6FEE
:1022700070662062697320646572206F62657265A2
:1022800020416E7363686C61672065727265696373
:10229000687420776972642E204B6C69636B656E7D
:1022A000205369652064656E204B6E6F70662077E1
:1022B000656E6E2065732067616E7A206F62656E51
:1022C00020776972642E004B616C69627261636A87
:1022D000612058595A2E2050727A656B72656320BE
:1022E00067616C6B652C206162792070727A65730E
:1022F000756E6163206F73205A20646F20676F7260
:102300006E796368206B72616E636F77656B2E20E8
:102310004E616369736E696A2C20627920706F74F4
:1023200077696572647A69632E0043616C696272D1
:10233000616E646F2058595A2E204769726120657A
:102340006C20626F746F6E207061726120737562B1
:10235000697220656C206578747275736F7220687D
:102360006173746120746F636172206C6F73207489
:102370006F706573207375706572696F7265732E07
:1023800020446573707565732068617A20636C6999
:10239000632E0043616C696272617A696F6E6520B9
:1023A00058595A2E2052756F74617265206C6120E5
:1023B0006D616E6F706F6C612070657220616C7AF8
:1023C00061726520696C2063617272656C6C6F204C
:1023D0005A2066696E6F20616C6C27616C74657A37
:1023E0007A61206D617373696D612E20436C69633E
:1023F0006B20706572207465726D696E6172652EF6
:10240000004B616C6962726163652058595A2E20D5
:102410004F746163656E696D20746C616369746B80
:102420006120706F73756E7465205A206F7375200C
:10243000617A206B7E686F726E696D7520646F7251
:10244000617A752E20506F74767264746520746C96
:10245000616369746B656D2E0043616C69627261C2
:1024600074696E672058595A2E20526F74617465D2
:1024700020746865206B6E6F6220746F206D6F76BC
:102480006520746865205A206361727269616765AE
:1024900020757020746F2074686520656E642073E9
:1024A000746F70706572732E20436C69636B207754
:1024B00068656E20646F6E652E004B616C69627298
:1024C000696572656E20766F6E205A2E20447265A3
:1024D00068656E205369652064656E204B6E6F7071
:1024E000662062697320646572206F626572652080
:1024F000416E7363686C61672065727265696368B9
:102500007420776972642E204B6C69636B656E2052
:102510005369652064656E204B6E6F706620776529
:102520006E6E2065732067616E7A206F62656E2023
:10253000776972642E004B616C69627261636A61D3
:10254000205A2E2050727A656B7265632067616C29
:102550006B652C206162792070727A6573756E618B
:1025600063206F73205A20646F20676F726E7963E7
:1025700068206B72616E636F77656B2E204E6163AE
:1025800069736E696A2C20627920706F747769654F
:1025900072647A69632E0043616C696272616E6471
:1025A0006F205A2E204769726120656C20626F741B
:1025B0006F6E207061726120737562697220656C44
:1025C000206578747275736F72206861737461200E
:1025D000746F636172206C6F7320746F7065732009
:1025E0007375706572696F7265732E2044657370C0
:1025F0007565732068617A20636C69632E0043619E
:102600006C696272617A696F6E65205A2E2052750C
:102610006F74617265206C61206D616E6F706F6C9C
:10262000612070657220616C7A61726520696C202E
:1026300063617272656C6C6F205A2066696E6F20E0
:10264000616C6C27616C74657A7A61206D6173735B
:10265000696D612E20436C69636B20706572207414
:1026600065726D696E6172652E004B616C69627294
:10267000616365205A2E204F746163656E696D2019
:10268000746C616369746B6120706F73756E7465CF
:10269000205A206F737520617A206B7E686F726E8E
:1026A000696D7520646F72617A752E20506F747633
:1026B0007264746520746C616369746B656D2E005F
:1026C00043616C6962726174696E67205A2E205290
:1026D0006F7461746520746865206B6E6F6220741E
:1026E0006F206D6F766520746865205A2063617273
:1026F000726961676520757020746F207468652049
:10270000656E642073746F70706572732E20436CF5
:1027100069636B207768656E20646F6E652E005765
:10272000617274656E206175662041626B756568C3
:102730006C756E6720766F6E2048656174657220D7
:10274000756E6420426574742E004F637A656B6900
:1027500077616E6965206E6120777963686C6F645C
:102760007A656E6965206479737A79206920706F63
:10277000646B6C61646B692E004573706572616E89
:10278000646F20656E667269616D69656E746F2035
:102790006465206865617462656420792065787479
:1027A0007275736F722E00496E2061747465736167
:1027B0002064656C207261666672656464616D6533
:1027C0006E746F2064656C6C612074657374696EDF
:1027D0006120652064656C2070696174746F0043CA
:1027E000656B616E69206E61207A63686C61646EEE
:1027F00075746920747279736B79206120706F64CD
:102800006C6F7A6B792E0057616974696E67206608
:102810006F72206E6F7A7A6C6520616E64206265DB
:102820006420636F6F6C696E6700497465726163E1
:102830006A6120005265697465726163696F6E2018
:1028400000526569746572617A696F6E652000492E
:102850007465726163652000497465726174696FA3
:102860006E200058595A204B616C6962726965721A
:10287000756E6720696E204F72646E756E672E20CC
:102880005363686965666865697420776972642056
:102890006175746F6D617469736368206B6F7272B8
:1028A0006967696572742E004B616C69627261635D
:1028B0006A612058595A207072617769646C6F7729
:1028C000612E20536B6F737920626564612061759E
:1028D000746F6D617479637A6E6965207779726F50
:1028E000776E616E652070727A79206472756B758F
:1028F0002E0043616C6962726163696F6E20585982
:102900005A20636F7272656374612E204C61206976
:102910006E636C696E6163696F6E20736520636FAF
:1029200072726567697261206175746F6D61746937
:1029300063616D656E74652E0043616C69627261DE
:102940007A696F6E2058595A20636F727265747479
:10295000612E204C6120646973746F7273696F6EAD
:102960006520766572726127206175746F6D617480
:102970006963616D656E746520636F6D70656E73FC
:102980006174612E004B616C6962726163652058ED
:10299000595A207620706F7261646B752E205A6BC5
:1029A0006F73656E692062756465206175746F6D03
:1029B000617469636B79207679726F766E616E6F80
:1029C00020707269207469736B752E0058595A20F3
:1029D00063616C6962726174696F6E20616C6C20F6
:1029E00072696768742E20536B65772077696C6C09
:1029F00020626520636F727265637465642061751F
:102A0000746F6D61746963616C6C792E0058595AEA
:102A1000204B616C696272696572756E6720696EC0
:102A2000204F72646E756E672E20582F59204163B7
:102A30006873656E2073696E6420657477617320B6
:102A40007363686965662E004B616C6962726163CD
:102A50006A612058595A207072617769646C6F7787
:102A6000612E204F73696520582F59206C656B6B60
:102A70006F20736B6F736E652E20446F62726120DE
:102A8000726F626F7461210043616C69627261638D
:102A9000696F6E2058595A20636F72726563746152
:102AA0002E204C6F7320656A65732058202F2059A3
:102AB00020657374616E206C69676572616D656E07
:102AC000746520696E636C696E61646F732E204259
:102AD00075656E2074726162616A6F210043616C7A
:102AE000696272617A696F6E2058595A20636F72F9
:102AF00072657474612E204173736920582F5920B8
:102B00006C65676765726D656E74652073746F724E
:102B100074692E2042656E20666174746F21004BCB
:102B2000616C6962726163652058595A2076207021
:102B30006F7261646B752E20582F59206F73792046
:102B40006D69726E65207A6B6F73656E652E2044B9
:102B50006F627261207072616365210058595A205A
:102B600063616C6962726174696F6E20616C6C2064
:102B700072696768742E20582F5920617865732018
:102B800061726520736C696768746C7920736B651A
:102B90007765642E20476F6F64206A6F622100584A
:102BA000595A2D4B616C696272696572756E672046
:102BB0004F4B2E20582F592D41636873656E20733B
:102BC000696E642073656E6B7265636874207A75D4
:102BD00065696E616E6465722E20476C7565636B06
:102BE00077756E73636821004B616C696272616313
:102BF0006A612058595A206F6B2E204F73696520E7
:102C0000582F592073612070726F73746F706164F4
:102C10006C652E2047726174756C61636A65210072
:102C200043616C6962726163696F6E2058595A2002
:102C30006F6B2E20456A657320582F59207065727E
:102C400070656E646963756C617265732E20456E84
:102C5000686F72616275656E61210043616C6962C3
:102C600072617A696F6E652058595A204F4B2E2039
:102C7000476C69206173736920582F5920736F6EF8
:102C80006F2070657270656E6469636F6C617269E4
:102C90002E20436F6D706C696D656E746921004BF9
:102CA000616C6962726163652058595A20762070A0
:102CB0006F7261646B752E20582F59206F737920C5
:102CC0006A736F75206B6F6C6D652E20477261742F
:102CD000756C756A69210058595A2063616C696284
:102CE000726174696F6E206F6B2E20582F592061AE
:102CF000786573206172652070657270656E6469B5
:102D000063756C61722E20436F6E67726174756CAF
:102D10006174696F6E73210058595A2D4B616C694B
:102D20006272696572756E6720756E67656E617532
:102D30002E204C696E6B657220766F7264657265C9
:102D400072204B616C69627269657270756E6B742A
:102D500020697374207A75207765697420766F72A4
:102D60006E652E004B616C69627261636A61205806
:102D7000595A206E6965646F6B6C61646E612E20B8
:102D80004C6577792070727A65646E692070756E13
:102D90006B74207A62797420777973756E696574C3
:102DA0007920646F2070727A6F64752E0043616CB5
:102DB000696272617A696F6E2058595A20636F6D2B
:102DC00070726F6D65746964612E2050756E746FDA
:102DD0002066726F6E74616C20697A7175696572B4
:102DE000646F206E6F20616C63616E7A61626C65E6
:102DF0002E0043616C696272617A696F6E6520585A
:102E0000595A20636F6D70726F6D657373612E20F8
:102E100050756E746F20616E746572696F72652093
:102E200073696E697374726F206E6F6E2072616762
:102E30006769756E676962696C652E004B616C69C4
:102E400062726163652058595A206E6570726573AD
:102E50006E612E204C65767920707265646E6920F3
:102E6000626F64206D6F63207670726564752E00EA
:102E700058595A2063616C6962726174696F6E207F
:102E8000636F6D70726F6D697365642E204C65663B
:102E9000742066726F6E742063616C696272617413
:102EA000696F6E20706F696E74206E6F742072652A
:102EB00061636861626C652E0058595A2D4B616CD4
:102EC000696272696572756E6720756E67656E619D
:102ED000752E205265636874657220766F72646522
:102EE000726572204B616C69627269657270756E91
:102EF0006B7420697374207A752077656974207605
:102F00006F726E652E004B616C69627261636A61FB
:102F10002058595A206E6965646F6B6C61646E61EC
:102F20002E2050726177792070727A65646E692004
:102F300070756E6B74207A62797420777973756E10
:102F40006965747920646F2070727A6F64752E00E1
:102F500043616C696272617A696F6E2058595A20B8
:102F6000636F6D70726F6D65746964612E2050754A
:102F70006E746F2066726F6E74616C20646572652A
:102F800063686F206E6F20616C63616E7A61626C42
:102F9000652E0043616C696272617A696F6E6520AB
:102FA00058595A20636F6D70726F6D657373612E1F
:102FB0002050756E746F20616E746572696F7265F2
:102FC0002064657374726F206E6F6E207261676724
:102FD00069756E676962696C652E004B616C696228
:102FE000726163652058595A206E65707265736E00
:102FF000612E20507261767920707265646E69204E
:10300000626F64206D6F63207670726564752E0048
:1030100058595A2063616C6962726174696F6E20DD
:10302000636F6D70726F6D697365642E205269678E
:1030300068742066726F6E742063616C696272617D
:1030400074696F6E20706F696E74206E6F74207279
:103050006561636861626C652E0058595A2D4B6139
:103060006C696272696572756E6720756E67656EF0
:1030700061752E20566F7264657265204B616C69B4
:10308000627269657270756E6B74652073696E64C7
:10309000207A75207765697420766F726E652E00D0
:1030A0004B616C6962722E2058595A206E696564B2
:1030B0006F6B6C61646E612E2050727A65646E690C
:1030C000652070756E6B7479206B616C6962722E0D
:1030D000205A627974207779732E20646F20707281
:1030E0007A6F64752E0043616C696272617A696FF0
:1030F0006E2058595A20636F6D70726F6D657469D8
:1031000064612E2050756E746F732066726F6E74DA
:10311000616C6573206E6F20616C63616E7A6162B1
:103120006C65732E0043616C696272617A696F6EBF
:10313000652058595A20636F6D70726F6D65737397
:10314000612E2050756E746920616E746572696FAE
:103150007269206E6F6E207261676769756E67694C
:1031600062696C692E004B616C69627261636520F3
:1031700058595A206E65707265736E612E205072B8
:1031800065646E69206B616C69627261636E69204F
:10319000626F6479206D6F63207670726564752E3E
:1031A0000058595A2063616C6962726174696F6E6C
:1031B00020636F6D70726F6D697365642E20467247
:1031C0006F6E742063616C6962726174696F6E20E6
:1031D000706F696E7473206E6F74207265616368BE
:1031E00061626C652E0058595A2D4B616C69627290
:1031F000696572756E67206665686C67657363687C
:103200006C6167656E2E204C696E6B657220766FFF
:10321000726465726572204B616C69627269657275
:1032200070756E6B7420697374207A752077656988
:103230007420766F726E652E004B616C6962722E1F
:103240002058595A206E69657564616E612E204C54
:103250006577792070727A65646E692070756E6B1F
:1032600074207A62797420646F2070727A6F64754A
:103270002E205779726F776E6163206472756B616F
:10328000726B652E0043616C6962726163696F6E77
:103290002058595A2066616C6C6164612E2050750B
:1032A0006E746F2066726F6E74616C20697A7175CE
:1032B000696572646F206E6F20616C63616E7A6104
:1032C000626C652E0043616C696272617A696F6E2F
:1032D000652058595A2066616C6C6974612E2050C3
:1032E000756E746F20616E746572696F726520739C
:1032F000696E697374726F206E6F6E20726167679A
:1033000069756E676962696C652E004B616C6962F4
:10331000726163652058595A2073656C68616C61ED
:103320002E204C65767920707265646E6920626F1C
:1033300064206D6F63207670726564752E20537201
:103340006F766E656A7465207469736B61726E75F1
:103350002E0058595A2063616C6962726174696FFA
:103360006E206661696C65642E204C65667420660B
:10337000726F6E742063616C6962726174696F6EE2
:1033800020706F696E74206E6F742072656163685F
:1033900061626C652E0058595A2D4B616C696272DE
:1033A000696572756E67206665686C6765736368CA
:1033B0006C6167656E2E2052656368746572207655
:1033C0006F726465726572204B616C6962726965C7
:1033D0007270756E6B7420697374207A75207765CE
:1033E000697420766F726E652E004B616C69627233
:1033F0002E2058595A206E69657564616E612E20C1
:1034000050726177792070727A65646E6920707588
:103410006E6B74207A62797420646F2070727A6F98
:1034200064752E205779726F776E616320647275B0
:103430006B61726B652E0043616C696272616369D6
:103440006F6E2058595A2066616C6C61642E205052
:10345000756E746F2066726F6E74616C2064657235
:103460006563686F206E6F20616C63616E7A616264
:103470006C652E0043616C696272617A696F6E657A
:103480002058595A2066616C6C6974612E20507501
:103490006E746F20616E746572696F726520646509
:1034A0007374726F206E6F6E207261676769756EDC
:1034B000676962696C652E004B616C696272616359
:1034C000652058595A2073656C68616C612E2050D4
:1034D0007261767920707265646E6920626F642013
:1034E0006D6F63207670726564752E2053726F76EF
:1034F0006E656A7465207469736B61726E752E00F7
:1035000058595A2063616C6962726174696F6E20E8
:103510006661696C65642E20526967687420667202
:103520006F6E742063616C6962726174696F6E2082
:10353000706F696E74206E6F74207265616368616C
:10354000626C652E0058595A2D4B616C6962726924
:103550006572756E67206665686C67657363686C15
:103560006167656E2E20566F7264657265204B61CF
:103570006C69627269657270756E6B7465207369CF
:103580006E64207A75207765697420766F726E6537
:103590002E004B616C6962722E2058595A206E6958
:1035A000657564616E612E2050727A65642E20709C
:1035B000756E6B7479206B616C6962722E207A6211
:1035C000797420646F2070727A6F64752E20577939
:1035D000726F776E6163206472756B61726B652EBA
:1035E0000043616C6962726163696F6E2058595A59
:1035F0002066616C6C6164612E2050756E746F730F
:103600002066726F6E74616C6573206E6F20616CE2
:1036100063616E7A61626C65732E0043616C6962EE
:1036200072617A696F6E652058595A2066616C6CB8
:103630006974612E2050756E746920616E746572B4
:10364000696F7269206E6F6E207261676769756E4F
:10365000676962696C692E004B616C6962726163B3
:10366000652058595A2073656C68616C612E205032
:103670007265646E69206B616C69627261636E6908
:1036800020626F6479206D6F632076707265647557
:103690002E2053726F766E656A7465207469736B41
:1036A00061726E752E0058595A2063616C6962729E
:1036B0006174696F6E206661696C65642E20467264
:1036C0006F6E742063616C6962726174696F6E20E1
:1036D000706F696E7473206E6F74207265616368B9
:1036E00061626C652E0058595A2D4B616C6962728B
:1036F000696572756E67206665686C676573636877
:103700006C6167656E2E204269747465207363680E
:103710006175656E2053696520696E206461732050
:1037200048616E64627563682E004B616C696272F9
:1037300061636A612058595A206E6965706F7769B4
:1037400065647A696F6E612E205370726177647A56
:103750006963207720696E737472756B636A692E72
:103760000043616C6962726163696F6E2058595AD7
:103770002066616C6C6164612E20436F6E73756CA2
:10378000746120656C206D616E75616C20706F7264
:10379000206661766F722E0043616C696272617A95
:1037A000696F6E652058595A2066616C6C69746146
:1037B0002E20536920707265676120646920636FF1
:1037C0006E73756C7461726520696C206D616E75C5
:1037D000616C652E004B616C696272616365205893
:1037E000595A2073656C68616C612E204E61686C5B
:1037F00065646E65746520646F206D616E75616CC3
:10380000752E0058595A2063616C6962726174693F
:103810006F6E206661696C65642E20506C65617303
:103820006520636F6E73756C7420746865206D61BC
:103830006E75616C2E0058595A2D4B616C6962721D
:10384000696572756E67206665686C676573636825
:103850006C6167656E2E20426574742D4B616C69D6
:10386000627269657270756E6B74206E69636874DC
:1038700020676566756E64656E2E004B616C6962CB
:10388000722E2058595A206E69657564616E612EDA
:10389000204B616C6962726163796A6E7920707520
:1038A0006E6B7420706F646B6C61646B69206E6901
:1038B000657A6E616C657A696F6E792E0043616C12
:1038C0006962726163696F6E2058595A2066616C33
:1038D0006C6164612E2050756E746F732064652076
:1038E00063616C6962726163696F6E20656E2068E6
:1038F000656174626564206E6F20656E636F6E74BF
:103900007261646F732E0043616C696272617A69DF
:103910006F6E652058595A2066616C6C6974612E0F
:1039200020496C2070756E746F2064692063616C2F
:10393000696272617A696F6E652073756C206C655F
:1039400074746F206E6F6E20652720737461746FBE
:103950002074726F7661746F2E004B616C696272B5
:103960006163652058595A2073656C68616C612EDB
:10397000204B616C69627261636E6920626F6420C2
:10398000706F646C6F7A6B79206E656E616C657AAE
:10399000656E2E0058595A2063616C6962726174B9
:1039A000696F6E206661696C65642E2042656420D3
:1039B00063616C6962726174696F6E20706F696EA9
:1039C0007420776173206E6F7420666F756E642E3D
:1039D0000020766F6E203400207A20340020646549
:1039E000203400207375203400207A203400206FAA
:1039F0006620340053756368656E204265747420D8
:103A00004B616C69627269657270756E6B7400539C
:103A10007A756B616D2070756E6B7475206B616C5F
:103A20006962726163796A6E65676F20706F646B3B
:103A30006C61646B690042757363616E646F2070C2
:103A4000756E746F2064652063616C696272616376
:103A5000696F6E20686561746265640052696365B0
:103A60007263612064656C206C6574746F2070757E
:103A70006E746F2064692063616C696272617A2E72
:103A800000486C6564616D206B616C696272616392
:103A90006E6920626F6420706F646C6F7A6B79005E
:103AA000536561726368696E672062656420636153
:103AB0006C6962726174696F6E20706F696E7400F8
:103AC0004C6567656E2065696E20426C6174742078
:103AD00050617069657220756E74657220646965E5
:103AE000204475657365207761656872656E642032
:103AF000646572204B616C696272696572756E678C
:103B0000206465722065727374656E203420507570
:103B10006E6B74652E2057656E6E20646965204457
:103B200075657365206461732050617069657220EA
:103B300065696E6B6C656D6D742C20447275636B7A
:103B4000657220736F666F7274206175737363683A
:103B5000616C74656E00556D69657363206B61728D
:103B6000746B652070617069657275206E6120707C
:103B70006F646B6C6164636520692074727A796D1F
:103B8000616A20706F64206479737A6120706F6459
:103B9000637A617320706F6D6961727520706965F9
:103BA0007277737A79636820342070756E6B746FE6
:103BB000772E204A65736C69206479737A61207A64
:103BC000616861637A79206F207061706965722C19
:103BD0002077796C61637A206472756B61726B65B2
:103BE0002E00436F6C6F63617220756E6120686F89
:103BF0006A6120646520706170656C20736F627209
:103C000065206C61207375706572666963696520F3
:103C1000646520696D70726573696F6E206475727A
:103C2000616E7465206C612063616C6962726163AE
:103C3000696F6E206465206C6F73207072696D65AA
:103C4000726F7320342070756E746F732E205369F9
:103C5000206C6120626F7175696C6C61206D756597
:103C6000766520656C20706170656C2C20617061D8
:103C700067617220696D707265736F726120696E21
:103C80006D6564696174616D656E74652E00506F59
:103C900072726520756E20666F676C696F20736F36
:103CA00074746F206C277567656C6C6F2064757217
:103CB000616E7465206C612063616C696272617A07
:103CC000696F6E6520646569207072696D69203462
:103CD0002070756E74692E20496E206361736F20A9
:103CE0006C277567656C6C6F206D756F76612069E8
:103CF0006C20666F676C696F20737065676E6572A4
:103D0000652070726F6E74616D656E7465206C6194
:103D1000207374616D70616E74652E00556D6973EA
:103D200074657465206C6973742070617069727554
:103D3000206E6120706F646C6F7A6B7520612075E6
:103D400064727A756A7465206A656A20706F64208F
:103D5000747279736B6F7520626568656D206D652F
:103D600072656E69207072766E69636820342062B5
:103D70006F64752E20506F6B756420747279736B4D
:103D800061207A6163687974692070617069722C4E
:103D9000207679706E657465207469736B61726EDC
:103DA000752E00506C6163652061207368656574D1
:103DB000206F6620706170657220756E6465722078
:103DC000746865206E6F7A7A6C6520647572696EAE
:103DD00067207468652063616C6962726174696FE1
:103DE0006E206F66206669727374203420706F696C
:103DF0006E74732E20496620746865206E6F7A7A1F
:103E00006C652063617463686573207468652070F5
:103E1000617065722C20706F776572206F66662006
:103E2000746865207072696E74657220696D6D6565
:103E300064696174656C792E00A3207D2056202E64
:103E4000200A20ED1F0F22C3218E2159211A21CAD9
:103E5000205924012493232A23C7224922C0266AF9
:103E600026FE2597253625BA240728DF27A7277998
:103E7000274A271F275920736561726368696E6737
:103E8000207261646975732068696768657220745F
:103E900068616E20585F4D41582E20436C616D70F3
:103EA000696E672077617320646F6E652E005920FC
:103EB000736561726368696E6720726164697573A6
:103EC000206C6F776572207468616E20595F4D4970
:103ED0004E2E20436C616D70696E67207761732090
:103EE000646F6E652E005820736561726368696E39
:103EF00067207261646975732068696768657220FC
:103F00007468616E20585F4D41582E20436C616D7E
:103F100070696E672077617320646F6E652E00583C
:103F200020736561726368696E6720726164697588
:103F300073206C6F776572207468616E20585F4DD6
:103F4000494E2E20436C616D70696E6720776173F6
:103F500020646F6E652E00536176696E672062651E
:103F6000642063616C6962726174696F6E2076654A
:103F700063746F727320746F20454550524F4D002B
:103F800050657270656E646963756C61726974798D
:103F9000005A65726F20706F696E7420636F727261
:103FA000656374696F6E3A005920766563746F7249
:103FB000206C656E6774683A005820766563746F8C
:103FC00072206C656E6774683A00203C200057418F
:103FD000524E494E473A2046726F6E7420706F6998
:103FE0006E74206E6F7420726561636861626C65C7
:103FF0002E205920636F6F7264696E6174653A0098
:104000000070745B315D3A0070745B305D3A0000A3
:104010004D656173757265643A000063757272650F
:104020006E745F706F736974696F6E5B5A5F41582D
:1040300049535D3A000063757272656E745F706F0C
:10404000736974696F6E5B595F415849535D3A00FB
:104050000063757272656E745F706F736974696FF7
:104060006E5B585F415849535D3A000000E442FCE2
:10407000FFFFBF000057430000C0420000E44200C1
:10408000004243000040410000C042417420592DCD
:10409000340041742059300058284F2841283428D2
:1040A0002A28582800636E74725B315D3A00006301
:1040B0006E74725B305D3A00007665635F795B31E8
:1040C0005D3A00007665635F795B305D3A000076AB
:1040D00065635F785B315D3A00007665635F785BAE
:1040E000305D3A00566563746F72733A200049740C
:1040F00065726174696F6E3A2000CC29852939296F
:10410000F228A82863285C2B1F2BDD2A882A482A3E
:104110000D2AD72C9F2C5B2C202CE82B9F2B702E4C
:104120003C2EF22DAD2D642D182D1030DB2F932F4A
:10413000502F062FB92EA13166312531E630A0303F
:104140005A3052330B33C53285323932E6310035BD
:10415000B83474343734EA339633A63658361B36BF
:10416000E135923545350338D537983761372A37E9
:10417000E63694395A390739BD387B383638EE3946
:10418000E939E339DD39D839D139A03A813A5C3A95
:10419000363A0F3AF439A33D1C3D8E3CE23B563B88
:1041A000C03A416B7475656C6C65730054796C6BC7
:1041B0006F20616B7475616C6E650041637475612D
:1041C0006C0041747475616C6500506F757A652080
:1041D000616B7475616C6E690043757272656E74A3
:1041E000004265696D20447275636B2062656E756F
:1041F000747A746500557A7974652070727A7920C2
:104200006472756B7500557361646F20656E20690B
:104210006D70726573696F6E005573617469206E9D
:10422000656C6C61207374616D706100506F757A9C
:1042300069746520626568656D207469736B7500CB
:104240005573656420647572696E67207072696E5B
:104250007400416C6C650057737A7973746B6F00EE
:10426000546F646F730054757474690056736500FD
:10427000416C6C00504944204B616C69622E206691
:104280006572746967004B616C2E20504944207A36
:10429000616B6F6E637A6F6E610043616C2E2050AC
:1042A0004944207465726D696E6164610043616C9C
:1042B0002E2050494420636F6D706C65746100500E
:1042C0004944206B616C2E20756B6F6E63656E6167
:1042D000005049442063616C2E2066696E697368E2
:1042E000656400504944204B616C69622E004B614B
:1042F0006C2E205049440043616C2E2050494420CC
:10430000202020202020202020200043616C2E200F
:1043100050494400504944206B616C2E20202020DD
:1043200020202020202020005049442063616C2E52
:104330002020202020202020202020004D31313737
:104340002045727374652D53636869636874204BEC
:10435000616C2E004D313137204B616C2E20312E97
:104360002077617273747779004D31313720436162
:104370006C2E207072696D657261206361702E0011
:104380004D3131372043616C2E207072696D6F2082
:104390006C617965722E004D313137204B616C2E86
:1043A000207072766E6920767273747679004D3162
:1043B0003137204669727374206C617965722063AD
:1043C000616C2E00447275636B2077656974657249
:1043D000676568656E00577A6E617769616E6965B9
:1043E000206472756B75005265616E756461722030
:1043F000696D70726573696F6E005374616D706181
:1044000020696E2072697072657361004F626E6F11
:10441000766F76616E69207469736B75005265738F
:10442000756D696E67207072696E74004472756391
:104430006B207061757369657274004472756B20CE
:104440007A6174727A796D616E7900496D70726506
:1044500073696F6E20656E207061757361005374AF
:10446000616D706120696E207061757361005469BF
:10447000736B20706F7A6173746176656E00507231
:10448000696E742070617573656400D941CA41C258
:1044900041BB41AC41A24140422C4219420642F587
:1044A00041E14170426C4266426042574252424989
:1044B0006E76616C6964205049442063616C2E20E3
:1044C000726573756C74732E204E6F742073746FE5
:1044D00072656420746F20454550524F4D2E004D3B
:1044E00035303000D142BF42AD429A4286427442DA
:1044F000284314430B43F742EE42E3424731205A2C
:1045000031352046313530300047393100473120D0
:104510005835302059313930204530204637303039
:104520003000473930004D373032004D37303220BF
:1045300043004D3730322055004D3730320047317F
:10454000205A313520463135303000473931004767
:104550003120583530205931393020453020463708
:10456000303030004D383300473930004D3834009A
:104570004D313034205330004D383400473120580D
:104580003130205931383020463430303000473116
:10459000205A31302046313330302E303030004D0B
:1045A000313430205330004D313034205330004D01
:1045B00031303700473120452D302E3037353030FF
:1045C0002046323130302E3030303030004731200C
:1045D000583530205935352045332E36323737336C
:1045E0000047312058323030205935352045302EA3
:1045F000343933383600473120583230302059377B
:10460000352045332E363237373300473120583581
:1046100030205937352045302E343933383600476D
:104620003120583530205939352045332E36323730
:104630003733004731205832303020593935204542
:10464000302E34393338360047312058323030205C
:10465000593131352045332E363237373300473123
:104660002058353020593131352045302E343933FA
:104670003836004731205835302059313335204500
:10468000332E36323737330047312058323030201E
:10469000593133352045302E3636313734004731E5
:1046A000205832303020593135352045322E3632BF
:1046B00037373300473120583130302059313535C4
:1046C00020453200473120583735205931353520C3
:1046D00045322E35004731204631303830004731E1
:1046E0002058353020593135350047312046343097
:1046F0003030004D323034205331303030004731CB
:10470000205A302E3135302046373230302E30307E
:104710003000473120452D312E35303030302046A5
:10472000323130302E3030303030004D38330047A9
:10473000393000473231004739322045302E3000C1
:10474000473120583130302E30204531322E35203F
:1047500046313030302E30004731205836302E3040
:104760002045392E302046313030302E3000473948
:10477000322045302E30004732380047383700AEFF
:104780004397438043694354433C434D3130392080
:1047900053323130004D31393020533535004D31F1
:1047A000343020533535004D3130342053323130E0
:1047B000004D313037001D440C44FA43E743D643E3
:1047C000C443473930004731204531004D3832006D
:1047D0004731204531004D3833004D3130362053BC
:1047E0002564004D32323020532564007E446E44EF
:1047F0005E444B443B442C44537465707261746551
:1048000020746F6F20686967683A2000F84724F4C5
:10481000D43050C38E20C2A24017828B7011127AFE
:10482000910D816CD90AA861E108C75866076151EA
:1048300043061E4B5D05C145A7041A411104093DFD
:104840009803713931034036DB0265339102D4306D
:104850005402802E1D02632CEE01752AC501B0287A
:10486000A001102781018F2564012B244B01E02238
:104870003401AC211F018D200D01801FFC00841E1E
:10488000ED00971DDF00B81CD200E61BC600201B00
:10489000BC00641AB200B219A8000A19A0006A1874
:1048A0009900D117910040178B00B516840031167E
:1048B0007E00B31579003A157300C7146F005814C1
:1048C0006A00EE1366008813630025135E00C712AA
:1048D0005B006C12570015125400C1115100701189
:1048E0004F0021114B00D61049008D104700461093
:1048F000440002104200C00F4000800F3E00420FF3
:104900003C00060F3B00CB0E3800930E37005C0EC8
:104910003500270E3400F30D3200C10D3100900D2B
:104920003000600D2E00320D2D00050D2C00D90C2D
:104930002B00AE0C2900850C29005C0C2700350CDF
:1049400027000E0C2600E80B2400C40B2400A00B4B
:1049500023007D0B23005A0B2100390B2100180B7B
:104960002000F80A1F00D90A1E00BB0A1E009D0A7B
:104970001D00800A1D00630A1C00470A1B002C0A48
:104980001B00110A1A00F7091A00DD091900C409F1
:104990001900AB091900920917007B091800630977
:1049A00017004C09160036091600200916000A09DE
:1049B0001500F5081500E0081400CC081400B8082C
:1049C0001400A4081400900813007D0812006B085E
:1049D000130058081200460812003408110023087A
:1049E00011001208110001081100F0071000E00783
:1049F0001000D0071000C0071000B0070F00A1077B
:104A0000100091070E0083070F0074070F00650761
:104A10000E0057070E0049070E003B070D002E073A
:104A20000E0020070D0013070D0006070D00F90604
:104A30000C00ED060D00E0060C00D4060C00C806C4
:104A40000C00BC060C00B0060C00A4060B00990676
:104A50000C008D060B0082060B0077060B006C061F
:104A60000B0061060A0057060B004C060A004206BE
:104A70000A0038060A002E060A0024060A001A0652
:104A80000A001006090007060A00FD050900F405E2
:104A90000900EB050900E2050900D9050900D00568
:104AA0000900C7050900BE050900B5050800AD05E8
:104AB0000800A50509009C050800940508008C0560
:104AC0000800840508007C050800740508006C05D2
:104AD0000700650508005D050700560508004E053E
:104AE00007004705070040050800380507003105A5
:104AF00007002A050700230507001C050600160508
:104B000007000F0507000805060002050700FB0463
:104B10000600F5040700EE040600E8040600E204BF
:104B20000700DB040600D5040600CF040600C90414
:104B30000600C3040600BD040600B7040600B10465
:104B40000500AC040600A6040600A00405009B04B2
:104B5000060095040500900406008A0405008504FB
:104B60000500800406007A04050075040500700441
:104B700005006B04050066040500610405005C0483
:104B8000050057040500520405004D0405004804C3
:104B90000500430405003E0404003A040500350402
:104BA0000500300404002C0405002704040023043D
:104BB00005001E0404001A04040016040500110474
:104BC00004000D04040009040500040404000004AA
:104BD0000400FC030400F8030400F4030400F003E1
:104BE0000400EC030400E8030400E4030400E00311
:104BF0000400DC030400D8030400D4030400D00341
:104C00000400CC030400C8030300C503030024F41C
:104C100004D9201BC40C5C0E9804C4095F0265070C
:104C20007101F405F900FB04B30048048700C103D7
:104C300069005803550003034500BE023A00840290
:104C4000310053022A002902250004022000E40159
:104C50001C00C8011900AF0117009801140084015D
:104C60001300710110006101100051010E00430199
:104C70000D0036010B002B010B0020010B0015016C
:104C800009000C01090003010800FB000800F30003
:104C90000800EB000700E4000600DE000600D80074
:104CA0000600D2000600CC000500C7000500C200C7
:104CB0000500BD000400B9000400B5000400B10007
:104CC0000400AD000400A9000400A5000300A20038
:104CD00003009F0004009B00030098000300950060
:104CE000020093000300900003008D0002008B007F
:104CF0000300880002008600020084000300810097
:104D000002007F0002007D0002007B0002007900AB
:104D100002007700010076000200740002007200B9
:104D20000100710002006F0002006D0001006C00C4
:104D300002006A00010069000200670001006600CD
:104D400001006500010064000200620001006100D2
:104D50000100600001005F0002005D0001005C00D6
:104D600001005B0001005A000100590001005800D9
:104D700001005700010056000100550001005400D9
:104D800001005300000053000100520001005100D7
:104D90000100500001004F0001004E0000004E00D5
:104DA00001004D0001004C0001004B0000004B00D1
:104DB00001004A00010049000100480000004800CD
:104DC00001004700010046000000460001004500C8
:104DD00000004500010044000100430000004300C2
:104DE00001004200000042000100410000004100BB
:104DF0000100400001003F0000003F0001003E00B4
:104E000000003E0001003D0000003D0001003C00AC
:104E100000003C0000003C0001003B0000003B00A3
:104E200001003A0000003A0001003900000039009A
:104E30000100380000003800000038000100370091
:104E40000000370001003600000036000000360088
:104E5000010035000000350000003500010034007D
:104E60000000340000003400010033000000330073
:104E70000000330001003200000032000000320068
:104E8000010031000000310000003100010030005D
:104E9000000030000000300001002F0000002F0053
:104EA00000002F0000002F0001002E0000002E0047
:104EB00000002E0001002D0000002D0000002D003C
:104EC00000002D0001002C0000002C0000002C0030
:104ED00000002C0001002B0000002B0000002B0024
:104EE00000002B0001002A0000002A0000002A0018
:104EF00000002A000100290000002900000029000C
:104F000000002900000029000100280000002800FE
:104F100000002800000028000000280001002700F1
:104F200000002700000027000000270000002700E5
:104F300001002600000026000000260000002600D8
:104F400000002600010025000000250000002500CB
:104F500000002500000025000000250001002400BD
:104F600000002400000024000000240000002400B1
:104F700001002300000023000000230000002300A4
:104F80000000230000002300000023000100220095
:104F90000000220000002200000022000000220089
:104FA000000022000100210000002100000021007B
:104FB000000021000000210000002100000021006D
:104FC0000100200000002000000020000000200060
:104FD0000000200000002000000020000000200051
:104FE00001001F0000001F0000001F0000001F0044
:104FF00000001F0000001F0000001F0001001E0035
:1050000000001E0000001E0000001E0000004530D1
:105010003A20005A3A2000593A2000583A20004DD0
:1050200053312C4D53322050696E730A0053746112
:105030006E6461726465696E7374656C6C756E67BD
:10504000656E2077757264656E207A757275636B14
:1050500067657365747A7400557374617769656EFA
:10506000696120646F6D799C6C6E6500416A75732F
:1050700074657320706F72206465666563746F2059
:105080006361726761646F732E0053657474616746
:10509000676920707265646566696E69746920630A
:1050A000617269636174690044656661756C746EF0
:1050B00069206E6173746176656E69206E616872D5
:1050C000616E6F0044656661756C742073657474FD
:1050D000696E6773206C6F616465640054656D7000
:1050E000657261747572207775726465206E69638C
:1050F0006874206B616C69627269657274004369DF
:1051000065706C6E61206B616C69627261636A616B
:10511000206E69652062796C612070727A657072A8
:105120006F7761647A6F6E61004C612074656D7099
:10513000657261747572612064652063616C696277
:10514000726163696F6E206E6F206861207369649D
:105150006F20616A75737461646100546172617477
:105160007572612064656C6C612074656D70657228
:105170006174757261206E6F6E20616E636F726113
:10518000206573656775697461005469736B61723A
:105190006E61206E6562796C61207465706C6F74ED
:1051A0006E65207A6B616C6962726F76616E610008
:1051B00054656D70657261747572652063616C69A8
:1051C00062726174696F6E20686173206E6F742003
:1051D0006265656E2072756E207965740044657233
:1051E0002041627374616E64207A776973636865C5
:1051F0006E2064657220537069747A6520646572EC
:1052000020447565736520756E6420646572204264
:1052100065747420697374206E6F6368206E6963AF
:1052200068742065696E67657374656C6C742E2094
:10523000426974746520666F6C67656E205369659A
:105240002064656D2048616E64627563682C204639
:10525000697273742073746570732C207365637442
:10526000696F6E204669727374206C617965722073
:1052700063616C6962726174696F6E2E004F646C59
:1052800065676C6F7363206479737A79206F64202B
:10529000706F646B6C61646B69206E6965206A6510
:1052A000737420736B616C6962726F77616E612ECB
:1052B00020506F73746570756A207A676F646E69C9
:1052C00065207A20696E737472756B636A612072EF
:1052D0006F7A647A69616C205A61637A796E616D64
:1052E000792C20706F64726F7A647A69616C204BDC
:1052F000616C69627261636A61207069657277735B
:105300007A656A20776172737477792E00446973C5
:1053100074616E63696120656E747265206C6120D2
:1053200070756E74612064656C206E6F7A7A6C653E
:105330002079206C61207375706572666963696598
:10534000206465206C612068656174626564206119
:10535000756E206E6F2066696A6164612E20506FE1
:1053600072206661766F72207369676120656C20B8
:105370006D616E75616C2C206361706974756C6F02
:105380002046697273742073746570732C204669AB
:10539000727374206C617965722063616C696272EA
:1053A0006174696F6E2E0044697374616E7A612056
:1053B000747261206C612070756E74612064656C1C
:1053C0006C277567656C6C6F2065206C6120737548
:1053D00070657266696369652064656C206C6574CC
:1053E000746F206E6F6E20616E636F726120696DE5
:1053F000706F7374612E205369207072656761202D
:105400006469207365677569726520696C206D61D8
:105410006E75616C652C2063617069746F6C6F20B0
:1054200046697273742073746570732C2073657A87
:10543000696F6E65204669727374206C617965725C
:105440002063616C6962726174696F6E2E004E65D3
:105450006E69207A6B616C6962726F76616E612031
:10546000767A64616C656E6F737420747279736B95
:1054700079206F64207469736B6F766520706F6438
:105480006C6F7A6B792E20506F73747570756A74B7
:10549000652070726F73696D20706F646C65206D2C
:1054A000616E75616C752C206B617069746F6C61D5
:1054B000205A6163696E616D652C206F647374613D
:1054C000766563204E6173746176656E69207072D3
:1054D000766E69207672737476792E0044697374DF
:1054E000616E6365206265747765656E20746970AE
:1054F000206F6620746865206E6F7A7A6C65206113
:105500006E642074686520626564207375726661DC
:10551000636520686173206E6F74206265656E201C
:10552000736574207965742E20506C6561736520F5
:10553000666F6C6C6F7720746865206D616E756145
:105540006C2C206368617074657220466972737494
:105550002073746570732C2073656374696F6E209B
:105560004669727374206C617965722063616C693D
:1055700062726174696F6E2E0044657220447275A8
:10558000636B6572207775726465206E6F63682047
:105590006E69636874206B616C69627269657274AC
:1055A0002E20426974746520666F6C67656E2053A7
:1055B0006965206461732048616E64627563682C5C
:1055C000204B61706974656C204669727374207336
:1055D000746570732C2041627363686E6974742003
:1055E00043616C6962726174696F6E20666C6F777B
:1055F0002E004472756B61726B61206E6965207A52
:105600006F7374616C61206A65737A637A65207365
:105610006B616C6962726F77616E612E2050726F80
:10562000737A65206B6965726F7761632073696552
:1056300020696E737472756B636A612C20726F7A65
:10564000647A69616C205A61637A796E616D792C34
:1056500020706F64726F7A647A69616C2053656C34
:1056600066746573742E00496D707265736F726134
:10567000206E6F20657374612063616C6962726172
:10568000646120746F64617669612E20506F7220AE
:105690006661766F722075736120656C206D616E36
:1056A00075616C2C206361706974756C6F2046693C
:1056B0007273742073746570732C2043616C69621B
:1056C000726174696F6E20666C6F772E005374611F
:1056D0006D70616E746520616E636F7261206E6FB4
:1056E0006E2063616C6962726174612E205369205F
:1056F000707265676120646920736567756972659A
:1057000020696C206D616E75616C652C2063617021
:1057100069746F6C6F205052494D4920504153536A
:10572000492C2073657A696F6E652064656C6C61C5
:105730002063616C696272617A696F6E652E0054D4
:1057400069736B61726E61206E6562796C61206A4B
:1057500065737465207A6B616C6962726F76616ED5
:10576000612E20506F73747570756A746520707245
:105770006F73696D20706F646C65206D616E75610B
:105780006C752C206B617069746F6C61205A616359
:10579000696E616D652C206F64737461766563203A
:1057A000506F73747570206B616C696272616365B0
:1057B0002E005072696E74657220686173206E6F7E
:1057C00074206265656E2063616C696272617465E4
:1057D00064207965742E20506C6561736520666F56
:1057E0006C6C6F7720746865206D616E75616C2CD0
:1057F00020636861707465722046697273742073E7
:10580000746570732C2073656374696F6E204361D7
:105810006C6962726174696F6E20666C6F772E00BE
:105820002020506C616E6E657242756666657242CC
:10583000797465733A20002046726565204D656D68
:105840006F72793A2000207C20417574686F723A3B
:105850002000204C61737420557064617465643A53
:10586000200020536F6674776172652052657365FE
:105870007400205761746368646F672052657365B4
:1058800074002042726F776E206F757420526573BA
:105890006574002045787465726E616C2052657382
:1058A000657400506F7765725570006572726F7223
:1058B0002077726974696E6720746F2066696C6501
:1058C00000656E6473746F7073206869743A2000A9
:1058D000446F6E6520736176696E672066696C65DA
:1058E0002E006F6B00202D20496E76616C6964205C
:1058F0006578747275646572206E756D626572206C
:10590000210050525553413344465700C450A850CB
:105910008A506C5058502D50B0518A515B512951CA
:10592000FE50DC50DC544E54A7530D537D52DD51D4
:10593000B2573F57CD566756F25579552020202053
:10594000334420205072696E7465727320202020C9
:10595000002020204F726967696E616C205072755B
:10596000736120202000466163746F727920524574
:1059700053455400205837584E6F7620313220322C
:1059800030313700436F6D70696C65643A200028D0
:105990006E6F6E652C2064656661756C7420636F34
:1059A0006E666967290046584E6F76203132203284
:1059B0003031372031313A30373A3338005258627B
:1059C00058725882589358A35873746172740020A7
:1059D000202020334420205072696E746572732039
:1059E000202020002020204F726967696E616C20A2
:1059F0005072757361202020002055706C6F6164B7
:105A000020696E2070726F677265737300AB585AAD
:105A100000205A3A00590020593A00580020583ABC
:105A200000C158D058E2584D32390020766F6E20B0
:105A30003900207A203900206465203900207375F0
:105A4000203900207A203900206F662039004D650A
:105A50007373656E20646572205265666572656E4B
:105A60007A686F65686520646573204B616C696254
:105A70007269657270756E6B746573004F6B7265D9
:105A8000736C616D207779736F6B6F7363206F64D4
:105A90006E69657369656E69612070756E6B74758A
:105AA000206B616C6962726163796A6E65676F0011
:105AB0004D696469656E646F20616C7475726120F4
:105AC00064656C2070756E746F2064652063616C12
:105AD0006962726163696F6E004D6973757261729C
